{
  "contractName": "KryptoBird",
  "abi": [
    {
      "inputs": [],
      "stateMutability": "nonpayable",
      "type": "constructor"
    },
    {
      "anonymous": false,
      "inputs": [
        {
          "indexed": true,
          "internalType": "address",
          "name": "_owner",
          "type": "address"
        },
        {
          "indexed": true,
          "internalType": "address",
          "name": "_approved",
          "type": "address"
        },
        {
          "indexed": true,
          "internalType": "uint256",
          "name": "_tokenId",
          "type": "uint256"
        }
      ],
      "name": "Approval",
      "type": "event"
    },
    {
      "anonymous": false,
      "inputs": [
        {
          "indexed": true,
          "internalType": "address",
          "name": "_from",
          "type": "address"
        },
        {
          "indexed": true,
          "internalType": "address",
          "name": "_to",
          "type": "address"
        },
        {
          "indexed": true,
          "internalType": "uint256",
          "name": "_tokenId",
          "type": "uint256"
        }
      ],
      "name": "Transfer",
      "type": "event"
    },
    {
      "inputs": [
        {
          "internalType": "address",
          "name": "_to",
          "type": "address"
        },
        {
          "internalType": "uint256",
          "name": "tokenId",
          "type": "uint256"
        }
      ],
      "name": "approve",
      "outputs": [],
      "stateMutability": "nonpayable",
      "type": "function"
    },
    {
      "inputs": [
        {
          "internalType": "address",
          "name": "_owner",
          "type": "address"
        }
      ],
      "name": "balanceOf",
      "outputs": [
        {
          "internalType": "uint256",
          "name": "",
          "type": "uint256"
        }
      ],
      "stateMutability": "view",
      "type": "function",
      "constant": true
    },
    {
      "inputs": [
        {
          "internalType": "uint256",
          "name": "",
          "type": "uint256"
        }
      ],
      "name": "kryptoBirdz",
      "outputs": [
        {
          "internalType": "string",
          "name": "",
          "type": "string"
        }
      ],
      "stateMutability": "view",
      "type": "function",
      "constant": true
    },
    {
      "inputs": [],
      "name": "name",
      "outputs": [
        {
          "internalType": "string",
          "name": "",
          "type": "string"
        }
      ],
      "stateMutability": "view",
      "type": "function",
      "constant": true
    },
    {
      "inputs": [
        {
          "internalType": "uint256",
          "name": "_tokenId",
          "type": "uint256"
        }
      ],
      "name": "ownerOf",
      "outputs": [
        {
          "internalType": "address",
          "name": "",
          "type": "address"
        }
      ],
      "stateMutability": "view",
      "type": "function",
      "constant": true
    },
    {
      "inputs": [
        {
          "internalType": "bytes4",
          "name": "interfaceID",
          "type": "bytes4"
        }
      ],
      "name": "supportsInterface",
      "outputs": [
        {
          "internalType": "bool",
          "name": "",
          "type": "bool"
        }
      ],
      "stateMutability": "view",
      "type": "function",
      "constant": true
    },
    {
      "inputs": [],
      "name": "symbol",
      "outputs": [
        {
          "internalType": "string",
          "name": "",
          "type": "string"
        }
      ],
      "stateMutability": "view",
      "type": "function",
      "constant": true
    },
    {
      "inputs": [
        {
          "internalType": "uint256",
          "name": "index",
          "type": "uint256"
        }
      ],
      "name": "tokenByIndex",
      "outputs": [
        {
          "internalType": "uint256",
          "name": "",
          "type": "uint256"
        }
      ],
      "stateMutability": "view",
      "type": "function",
      "constant": true
    },
    {
      "inputs": [
        {
          "internalType": "address",
          "name": "owner",
          "type": "address"
        },
        {
          "internalType": "uint256",
          "name": "index",
          "type": "uint256"
        }
      ],
      "name": "tokenOfOwnerByIndex",
      "outputs": [
        {
          "internalType": "uint256",
          "name": "",
          "type": "uint256"
        }
      ],
      "stateMutability": "view",
      "type": "function",
      "constant": true
    },
    {
      "inputs": [],
      "name": "totalSupply",
      "outputs": [
        {
          "internalType": "uint256",
          "name": "",
          "type": "uint256"
        }
      ],
      "stateMutability": "view",
      "type": "function",
      "constant": true
    },
    {
      "inputs": [
        {
          "internalType": "address",
          "name": "_from",
          "type": "address"
        },
        {
          "internalType": "address",
          "name": "_to",
          "type": "address"
        },
        {
          "internalType": "uint256",
          "name": "_tokenId",
          "type": "uint256"
        }
      ],
      "name": "transferFrom",
      "outputs": [],
      "stateMutability": "nonpayable",
      "type": "function"
    },
    {
      "inputs": [
        {
          "internalType": "string",
          "name": "_kryptoBird",
          "type": "string"
        }
      ],
      "name": "mint",
      "outputs": [],
      "stateMutability": "nonpayable",
      "type": "function"
    }
  ],
  "bytecode": "0x60806040523480156200001157600080fd5b506040518060400160405280600a81526020017f4b727970746f62697264000000000000000000000000000000000000000000008152506040518060400160405280600681526020017f4b424952445a00000000000000000000000000000000000000000000000000008152508181620000b17f73813bba42f44928e20db2a5b92cac99671b641f2b84888df9e2d62fb14450826200021c60201b60201c565b620001047f03144f78da04809d8e78d6e9da10443141715f98474f72c3a0757085607c67d17fc6eafd1c6ea7dd56c180de045e12a2cb66258d59a48110825d60a7c13ea19359186200021c60201b60201c565b81600190816200011591906200056d565b5080600290816200012791906200056d565b5050506200019f7f8da395452dde4b3940fdd0d3fd5ae56e9c39ee5ca9563d1cc97dbda1e51b985f7f60293eac20256f19c509e49463a3c1c1fb2aa69740f76fbe198c366bffce0ccd7faec5ad6393e26684e060a6dfb8b1a3519c3965e5d2de3d244418a4151a72843118186200021c60201b60201c565b620002147fa8684d08b6653d259510e04914ac781cca846cf8f427ea8918064f3b1b6af2f47f7f9cc912d042cc42c1139d123afdb08308a6f6ddbf9711bdfbd1aa8e58a79f1f7f07be17a964e270a0d591618b3bc5fd6d3b0c8a95010c5c5fc1ca06f43469bb1c18186200021c60201b60201c565b5050620006d7565b63ffffffff60e01b817bffffffffffffffffffffffffffffffffffffffffffffffffffffffff19160362000287576040517f08c379a00000000000000000000000000000000000000000000000000000000081526004016200027e90620006b5565b60405180910390fd5b6001600080837bffffffffffffffffffffffffffffffffffffffffffffffffffffffff19167bffffffffffffffffffffffffffffffffffffffffffffffffffffffff1916815260200190815260200160002060006101000a81548160ff02191690831515021790555050565b600081519050919050565b7f4e487b7100000000000000000000000000000000000000000000000000000000600052604160045260246000fd5b7f4e487b7100000000000000000000000000000000000000000000000000000000600052602260045260246000fd5b600060028204905060018216806200037557607f821691505b6020821081036200038b576200038a6200032d565b5b50919050565b60008190508160005260206000209050919050565b60006020601f8301049050919050565b600082821b905092915050565b600060088302620003f57fffffffffffffffffffffffffffffffffffffffffffffffffffffffffffffffff82620003b6565b620004018683620003b6565b95508019841693508086168417925050509392505050565b6000819050919050565b6000819050919050565b60006200044e62000448620004428462000419565b62000423565b62000419565b9050919050565b6000819050919050565b6200046a836200042d565b62000482620004798262000455565b848454620003c3565b825550505050565b600090565b620004996200048a565b620004a68184846200045f565b505050565b5b81811015620004ce57620004c26000826200048f565b600181019050620004ac565b5050565b601f8211156200051d57620004e78162000391565b620004f284620003a6565b8101602085101562000502578190505b6200051a6200051185620003a6565b830182620004ab565b50505b505050565b600082821c905092915050565b6000620005426000198460080262000522565b1980831691505092915050565b60006200055d83836200052f565b9150826002028217905092915050565b6200057882620002f3565b67ffffffffffffffff811115620005945762000593620002fe565b5b620005a082546200035c565b620005ad828285620004d2565b600060209050601f831160018114620005e55760008415620005d0578287015190505b620005dc85826200054f565b8655506200064c565b601f198416620005f58662000391565b60005b828110156200061f57848901518255600182019150602085019450602081019050620005f8565b868310156200063f57848901516200063b601f8916826200052f565b8355505b6001600288020188555050505b505050505050565b600082825260208201905092915050565b7f696e76616c696420696e74657266616365207265717565737400000000000000600082015250565b60006200069d60198362000654565b9150620006aa8262000665565b602082019050919050565b60006020820190508181036000830152620006d0816200068e565b9050919050565b611eab80620006e76000396000f3fe608060405234801561001057600080fd5b50600436106100b45760003560e01c80634f6ccce7116100715780634f6ccce71461018d5780636352211e146101bd57806370a08231146101ed57806393ab6e561461021d57806395d89b411461024d578063d85d3d271461026b576100b4565b806301ffc9a7146100b957806306fdde03146100e9578063095ea7b31461010757806318160ddd1461012357806323b872dd146101415780632f745c591461015d575b600080fd5b6100d360048036038101906100ce91906110af565b610287565b6040516100e091906110f7565b60405180910390f35b6100f16102ee565b6040516100fe91906111ab565b60405180910390f35b610121600480360381019061011c9190611261565b610380565b005b61012b61051b565b60405161013891906112b0565b60405180910390f35b61015b600480360381019061015691906112cb565b610528565b005b61017760048036038101906101729190611261565b61054b565b60405161018491906112b0565b60405180910390f35b6101a760048036038101906101a2919061131e565b6105fb565b6040516101b491906112b0565b60405180910390f35b6101d760048036038101906101d2919061131e565b61066c565b6040516101e4919061135a565b60405180910390f35b61020760048036038101906102029190611375565b61071d565b60405161021491906112b0565b60405180910390f35b6102376004803603810190610232919061131e565b6107d4565b60405161024491906111ab565b60405180910390f35b610255610880565b60405161026291906111ab565b60405180910390f35b610285600480360381019061028091906114d7565b610912565b005b6000806000837bffffffffffffffffffffffffffffffffffffffffffffffffffffffff19167bffffffffffffffffffffffffffffffffffffffffffffffffffffffff1916815260200190815260200160002060009054906101000a900460ff169050919050565b6060600180546102fd9061154f565b80601f01602080910402602001604051908101604052809291908181526020018280546103299061154f565b80156103765780601f1061034b57610100808354040283529160200191610376565b820191906000526020600020905b81548152906001019060200180831161035957829003601f168201915b5050505050905090565b600061038b8261066c565b90508073ffffffffffffffffffffffffffffffffffffffff168373ffffffffffffffffffffffffffffffffffffffff16036103fb576040517f08c379a00000000000000000000000000000000000000000000000000000000081526004016103f2906115f2565b60405180910390fd5b8073ffffffffffffffffffffffffffffffffffffffff163373ffffffffffffffffffffffffffffffffffffffff1614610469576040517f08c379a00000000000000000000000000000000000000000000000000000000081526004016104609061165e565b60405180910390fd5b826005600084815260200190815260200160002060006101000a81548173ffffffffffffffffffffffffffffffffffffffff021916908373ffffffffffffffffffffffffffffffffffffffff160217905550818373ffffffffffffffffffffffffffffffffffffffff168273ffffffffffffffffffffffffffffffffffffffff167f8c5be1e5ebec7d5bd14f71427d1e84f3dd0314c0f7b2291e5b200ac8c7c3b92560405160405180910390a4505050565b6000600680549050905090565b6105323382610a0e565b61053b57600080fd5b610546838383610a9d565b505050565b60006105568361071d565b8210610597576040517f08c379a000000000000000000000000000000000000000000000000000000000815260040161058e906116ca565b60405180910390fd5b600860008473ffffffffffffffffffffffffffffffffffffffff1673ffffffffffffffffffffffffffffffffffffffff16815260200190815260200160002082815481106105e8576105e76116ea565b5b9060005260206000200154905092915050565b600061060561051b565b8210610646576040517f08c379a000000000000000000000000000000000000000000000000000000000815260040161063d90611765565b60405180910390fd5b6006828154811061065a576106596116ea565b5b90600052602060002001549050919050565b6000806003600084815260200190815260200160002060009054906101000a900473ffffffffffffffffffffffffffffffffffffffff169050600073ffffffffffffffffffffffffffffffffffffffff168173ffffffffffffffffffffffffffffffffffffffff1603610714576040517f08c379a000000000000000000000000000000000000000000000000000000000815260040161070b906117d1565b60405180910390fd5b80915050919050565b60008073ffffffffffffffffffffffffffffffffffffffff168273ffffffffffffffffffffffffffffffffffffffff160361078d576040517f08c379a00000000000000000000000000000000000000000000000000000000081526004016107849061183d565b60405180910390fd5b600460008373ffffffffffffffffffffffffffffffffffffffff1673ffffffffffffffffffffffffffffffffffffffff168152602001908152602001600020549050919050565b600a81815481106107e457600080fd5b9060005260206000200160009150905080546107ff9061154f565b80601f016020809104026020016040519081016040528092919081815260200182805461082b9061154f565b80156108785780601f1061084d57610100808354040283529160200191610878565b820191906000526020600020905b81548152906001019060200180831161085b57829003601f168201915b505050505081565b60606002805461088f9061154f565b80601f01602080910402602001604051908101604052809291908181526020018280546108bb9061154f565b80156109085780601f106108dd57610100808354040283529160200191610908565b820191906000526020600020905b8154815290600101906020018083116108eb57829003601f168201915b5050505050905090565b600b816040516109229190611899565b908152602001604051809103902060009054906101000a900460ff161561097e576040517f08c379a0000000000000000000000000000000000000000000000000000000008152600401610975906118fc565b60405180910390fd5b600a819080600181540180825580915050600190039060005260206000200160009091909190915090816109b29190611ac8565b5060006001600a805490506109c79190611bc9565b90506109d33382610ce2565b6001600b836040516109e59190611899565b908152602001604051809103902060006101000a81548160ff0219169083151502179055505050565b6000610a1982610d03565b610a58576040517f08c379a0000000000000000000000000000000000000000000000000000000008152600401610a4f9061183d565b60405180910390fd5b6000610a638361066c565b90508073ffffffffffffffffffffffffffffffffffffffff168473ffffffffffffffffffffffffffffffffffffffff161491505092915050565b600073ffffffffffffffffffffffffffffffffffffffff168273ffffffffffffffffffffffffffffffffffffffff1603610b0c576040517f08c379a0000000000000000000000000000000000000000000000000000000008152600401610b0390611c6f565b60405180910390fd5b8273ffffffffffffffffffffffffffffffffffffffff16610b2c8261066c565b73ffffffffffffffffffffffffffffffffffffffff1614610b82576040517f08c379a0000000000000000000000000000000000000000000000000000000008152600401610b7990611d01565b60405180910390fd5b6001600460008573ffffffffffffffffffffffffffffffffffffffff1673ffffffffffffffffffffffffffffffffffffffff1681526020019081526020016000206000828254610bd29190611bc9565b925050819055506001600460008473ffffffffffffffffffffffffffffffffffffffff1673ffffffffffffffffffffffffffffffffffffffff1681526020019081526020016000206000828254610c299190611d21565b92505081905550816003600083815260200190815260200160002060006101000a81548173ffffffffffffffffffffffffffffffffffffffff021916908373ffffffffffffffffffffffffffffffffffffffff160217905550808273ffffffffffffffffffffffffffffffffffffffff168473ffffffffffffffffffffffffffffffffffffffff167fddf252ad1be2c89b69c2b068fc378daa952ba7f163c4a11628f55a4df523b3ef60405160405180910390a4505050565b610cec8282610d75565b610cf581610f36565b610cff8282610f7f565b5050565b6000806003600084815260200190815260200160002060009054906101000a900473ffffffffffffffffffffffffffffffffffffffff169050600073ffffffffffffffffffffffffffffffffffffffff168173ffffffffffffffffffffffffffffffffffffffff161415915050919050565b600073ffffffffffffffffffffffffffffffffffffffff168273ffffffffffffffffffffffffffffffffffffffff1603610de4576040517f08c379a0000000000000000000000000000000000000000000000000000000008152600401610ddb90611de9565b60405180910390fd5b610ded81610d03565b15610e2d576040517f08c379a0000000000000000000000000000000000000000000000000000000008152600401610e2490611e55565b60405180910390fd5b816003600083815260200190815260200160002060006101000a81548173ffffffffffffffffffffffffffffffffffffffff021916908373ffffffffffffffffffffffffffffffffffffffff1602179055506001600460008473ffffffffffffffffffffffffffffffffffffffff1673ffffffffffffffffffffffffffffffffffffffff1681526020019081526020016000206000828254610ecf9190611d21565b92505081905550808273ffffffffffffffffffffffffffffffffffffffff16600073ffffffffffffffffffffffffffffffffffffffff167fddf252ad1be2c89b69c2b068fc378daa952ba7f163c4a11628f55a4df523b3ef60405160405180910390a45050565b6006805490506007600083815260200190815260200160002081905550600681908060018154018082558091505060019003906000526020600020016000909190919091505550565b600860008373ffffffffffffffffffffffffffffffffffffffff1673ffffffffffffffffffffffffffffffffffffffff168152602001908152602001600020805490506009600083815260200190815260200160002081905550600860008373ffffffffffffffffffffffffffffffffffffffff1673ffffffffffffffffffffffffffffffffffffffff1681526020019081526020016000208190806001815401808255809150506001900390600052602060002001600090919091909150555050565b6000604051905090565b600080fd5b600080fd5b60007fffffffff0000000000000000000000000000000000000000000000000000000082169050919050565b61108c81611057565b811461109757600080fd5b50565b6000813590506110a981611083565b92915050565b6000602082840312156110c5576110c461104d565b5b60006110d38482850161109a565b91505092915050565b60008115159050919050565b6110f1816110dc565b82525050565b600060208201905061110c60008301846110e8565b92915050565b600081519050919050565b600082825260208201905092915050565b60005b8381101561114c578082015181840152602081019050611131565b8381111561115b576000848401525b50505050565b6000601f19601f8301169050919050565b600061117d82611112565b611187818561111d565b935061119781856020860161112e565b6111a081611161565b840191505092915050565b600060208201905081810360008301526111c58184611172565b905092915050565b600073ffffffffffffffffffffffffffffffffffffffff82169050919050565b60006111f8826111cd565b9050919050565b611208816111ed565b811461121357600080fd5b50565b600081359050611225816111ff565b92915050565b6000819050919050565b61123e8161122b565b811461124957600080fd5b50565b60008135905061125b81611235565b92915050565b600080604083850312156112785761127761104d565b5b600061128685828601611216565b92505060206112978582860161124c565b9150509250929050565b6112aa8161122b565b82525050565b60006020820190506112c560008301846112a1565b92915050565b6000806000606084860312156112e4576112e361104d565b5b60006112f286828701611216565b935050602061130386828701611216565b92505060406113148682870161124c565b9150509250925092565b6000602082840312156113345761133361104d565b5b60006113428482850161124c565b91505092915050565b611354816111ed565b82525050565b600060208201905061136f600083018461134b565b92915050565b60006020828403121561138b5761138a61104d565b5b600061139984828501611216565b91505092915050565b600080fd5b600080fd5b7f4e487b7100000000000000000000000000000000000000000000000000000000600052604160045260246000fd5b6113e482611161565b810181811067ffffffffffffffff82111715611403576114026113ac565b5b80604052505050565b6000611416611043565b905061142282826113db565b919050565b600067ffffffffffffffff821115611442576114416113ac565b5b61144b82611161565b9050602081019050919050565b82818337600083830152505050565b600061147a61147584611427565b61140c565b905082815260208101848484011115611496576114956113a7565b5b6114a1848285611458565b509392505050565b600082601f8301126114be576114bd6113a2565b5b81356114ce848260208601611467565b91505092915050565b6000602082840312156114ed576114ec61104d565b5b600082013567ffffffffffffffff81111561150b5761150a611052565b5b611517848285016114a9565b91505092915050565b7f4e487b7100000000000000000000000000000000000000000000000000000000600052602260045260246000fd5b6000600282049050600182168061156757607f821691505b60208210810361157a57611579611520565b5b50919050565b7f4572726f722c20617070726f76616c20746f2063757272656e74206f776e657260008201527f7200000000000000000000000000000000000000000000000000000000000000602082015250565b60006115dc60218361111d565b91506115e782611580565b604082019050919050565b6000602082019050818103600083015261160b816115cf565b9050919050565b7f63757272656e742063616c6c6572206973206e6f7420746865206f776e657200600082015250565b6000611648601f8361111d565b915061165382611612565b602082019050919050565b600060208201905081810360008301526116778161163b565b9050919050565b7f6f776e657220696e646578206973206f7574206f6620626f756e647321000000600082015250565b60006116b4601d8361111d565b91506116bf8261167e565b602082019050919050565b600060208201905081810360008301526116e3816116a7565b9050919050565b7f4e487b7100000000000000000000000000000000000000000000000000000000600052603260045260246000fd5b7f676c6f62616c20696e646578206973206f7574206f6620626f756e6473212100600082015250565b600061174f601f8361111d565b915061175a82611719565b602082019050919050565b6000602082019050818103600083015261177e81611742565b9050919050565b7f746f6b656e206973206e6f74206578697374696e670000000000000000000000600082015250565b60006117bb60158361111d565b91506117c682611785565b602082019050919050565b600060208201905081810360008301526117ea816117ae565b9050919050565b7f746f6b656e20646f6573206e6f74206578697374000000000000000000000000600082015250565b600061182760148361111d565b9150611832826117f1565b602082019050919050565b600060208201905081810360008301526118568161181a565b9050919050565b600081905092915050565b600061187382611112565b61187d818561185d565b935061188d81856020860161112e565b80840191505092915050565b60006118a58284611868565b915081905092915050565b7f4572726f723a204b727970746f4269726420616c726561647920657869737473600082015250565b60006118e660208361111d565b91506118f1826118b0565b602082019050919050565b60006020820190508181036000830152611915816118d9565b9050919050565b60008190508160005260206000209050919050565b60006020601f8301049050919050565b600082821b905092915050565b60006008830261197e7fffffffffffffffffffffffffffffffffffffffffffffffffffffffffffffffff82611941565b6119888683611941565b95508019841693508086168417925050509392505050565b6000819050919050565b60006119c56119c06119bb8461122b565b6119a0565b61122b565b9050919050565b6000819050919050565b6119df836119aa565b6119f36119eb826119cc565b84845461194e565b825550505050565b600090565b611a086119fb565b611a138184846119d6565b505050565b5b81811015611a3757611a2c600082611a00565b600181019050611a19565b5050565b601f821115611a7c57611a4d8161191c565b611a5684611931565b81016020851015611a65578190505b611a79611a7185611931565b830182611a18565b50505b505050565b600082821c905092915050565b6000611a9f60001984600802611a81565b1980831691505092915050565b6000611ab88383611a8e565b9150826002028217905092915050565b611ad182611112565b67ffffffffffffffff811115611aea57611ae96113ac565b5b611af4825461154f565b611aff828285611a3b565b600060209050601f831160018114611b325760008415611b20578287015190505b611b2a8582611aac565b865550611b92565b601f198416611b408661191c565b60005b82811015611b6857848901518255600182019150602085019450602081019050611b43565b86831015611b855784890151611b81601f891682611a8e565b8355505b6001600288020188555050505b505050505050565b7f4e487b7100000000000000000000000000000000000000000000000000000000600052601160045260246000fd5b6000611bd48261122b565b9150611bdf8361122b565b925082821015611bf257611bf1611b9a565b5b828203905092915050565b7f455243373231202d205472616e7366657220746f20746865205a65726f20416460008201527f6472657373000000000000000000000000000000000000000000000000000000602082015250565b6000611c5960258361111d565b9150611c6482611bfd565b604082019050919050565b60006020820190508181036000830152611c8881611c4c565b9050919050565b7f4572726f723a20747279696e6720746f207472616e73666572206120746f6b6560008201527f6e2074686174207468652073656e64657220646f6573206e6f74206f776e0000602082015250565b6000611ceb603e8361111d565b9150611cf682611c8f565b604082019050919050565b60006020820190508181036000830152611d1a81611cde565b9050919050565b6000611d2c8261122b565b9150611d378361122b565b9250827fffffffffffffffffffffffffffffffffffffffffffffffffffffffffffffffff03821115611d6c57611d6b611b9a565b5b828201905092915050565b7f4552433732313a206d696e74696e6720746f20746865207a65726f206164647260008201527f6573730000000000000000000000000000000000000000000000000000000000602082015250565b6000611dd360238361111d565b9150611dde82611d77565b604082019050919050565b60006020820190508181036000830152611e0281611dc6565b9050919050565b7f4552433732313a20546f6b656e20616c7265616479206d696e74656400000000600082015250565b6000611e3f601c8361111d565b9150611e4a82611e09565b602082019050919050565b60006020820190508181036000830152611e6e81611e32565b905091905056fea2646970667358221220d701e64d7a65a321b7b37d5fb5be53039aa681413ccac13ce2de75fde3ce6d5164736f6c634300080f0033",
  "immutableReferences": {},
  "source": "// SPDX-License-Identifier: MIT\npragma solidity ^0.8.0;\nimport './ERC721Connector.sol';\ncontract KryptoBird is ERC721Connector{\n\n    // array to store our NFTs. \n    string [] public kryptoBirdz;\n    mapping(string => bool) _kryptoBirdzExists;\n    function mint(string memory _kryptoBird) public {\n        require(!_kryptoBirdzExists[_kryptoBird],'Error: KryptoBird already exists');\n        //uint256 _id = KryptoBirdz.push(_kryptoBird);\n        kryptoBirdz.push(_kryptoBird);\n        uint256 _id = kryptoBirdz.length -1;\n        _mint(msg.sender, _id);\n        _kryptoBirdzExists[_kryptoBird] = true; \n    }\n\n\n    constructor () ERC721Connector ('Kryptobird','KBIRDZ')\n    {}\n\n\n\n   \n}",
  "sourcePath": "/Users/araqi/OneDrive - MAF Retail/2022/Study/NFT/Section8/VSC/nft-marketplace-starter-kit/src/contracts/KryptoBirdz.sol",
  "compiler": {
    "name": "solc",
    "version": "0.8.15+commit.e14f2714.Emscripten.clang"
  },
  "schemaVersion": "3.4.7",
  "updatedAt": "2022-07-20T14:25:46.554Z",
  "networkType": "ethereum",
  "devdoc": {
    "kind": "dev",
    "methods": {
      "supportsInterface(bytes4)": {
        "details": "Interface identification is specified in ERC-165. This function  uses less than 30,000 gas.",
        "params": {
          "interfaceID": "The interface identifier, as specified in ERC-165"
        },
        "returns": {
          "_0": "`true` if the contract implements `interfaceID` and  `interfaceID` is not 0xffffffff, `false` otherwise"
        }
      }
    },
    "version": 1
  },
  "userdoc": {
    "kind": "user",
    "methods": {
      "supportsInterface(bytes4)": {
        "notice": "Query if a contract implements an interface"
      }
    },
    "version": 1
  }
}